:020000040800F2
:100000000050002021020008270200082B020008EF
:100010009D020008A1020008E9020008000000009B
:100020000000000000000000000000003103000894
:10003000350300080000000039030008110D000816
:100040004D0300084D0300084D0300084D03000850
:100050004D0300084D0300084D0300084D03000840
:100060004D0300084D0300084D0300084D03000830
:100070004D0300084D0300084D0300084D03000820
:100080004D0300084D0300084D0300084D03000810
:100090004D0300084D0300084D0300084D03000800
:1000A0004D0300084D0300084D0300084D030008F0
:1000B0004D0300084D0300084D0300084D030008E0
:1000C0004D0300084D0300084D0300084D030008D0
:1000D0004D0300084D0300084D0300084D030008C0
:1000E0004D0300084D0300084D0300080000000008
:1000F0000000000000000000000000000000000000
:1001000000000000000000005FF808F100B583B0B7
:1001100000F064FC304B314A1360314A1360314BBC
:10012000314A03E052F8041B43F8041B2F498B4269
:10013000F8D32A4B1A682E4B9A4200D0FEE7284B80
:100140001A682C4B9A42F9D1234B2B4A13602B4A45
:1001500013602B4B02E0002243F8042B294A934200
:10016000F9D3254B1B6813B9244B1B6803B1FEE779
:1001700000F040FC694601A800F0C0FB224C234B74
:10018000E41AA410002504E0204B53F825309847CA
:100190000135AC42F8DC1E4C1E4BE41AA4100025BD
:1001A00004E01C4B53F8253098470135AC42F8DC8D
:1001B0000099019800F0C0FD0546174C174BE41A52
:1001C000A41004E0013C154B53F824309847002C50
:1001D000F8DC284600F064FBBABADECA0000002052
:1001E0009C00002000000020B41E0008A000002099
:1001F0007856341232547698A00000204002002035
:10020000A0000020440200207803000878030008C2
:1002100078030008780300087803000878030008D2
:1002200008B5FFF773FF00BEFEE71EF0040F0CBF1A
:10023000EFF30880EFF309807146414A10472DE93A
:10024000F04182B004468846124B5E6B9F6B9D6AFC
:100250001B6B13F0020F03D00E4BDB6A002B0CDB81
:100260000D4800F05DFBCDF800803B463246294644
:10027000204600F0C3FB00BEFEE74BF6AB6100F08A
:1002800037FC0028ECD0034B4FF00042DA6202B09A
:10029000BDE8F08100ED00E0041D000800BEFEE7AF
:1002A0001EF0040F0CBFEFF30880EFF309807146D6
:1002B000244A10472DE9F04182B004468846084B95
:1002C0005E6B9F6B9D6A074800F02AFBCDF80080AB
:1002D0003B4632462946204600F090FB00BEFEE732
:1002E00000ED00E0141D00081EF0040F0CBFEFF33A
:1002F0000880EFF309807146134A10472DE9F04159
:1003000082B004468846084B5E6B9F6B9D6A074827
:1003100000F006FBCDF800803B46324629462046D9
:1003200000F06CFB00BEFEE700ED00E0201D0008C1
:1003300000BEFEE700BEFEE700BEFEE7704700001D
:100340003F020008B5020008FD02000800BEFEE7FB
:10035000B41E000800000020A0000020B41E000809
:100360000000000000000000A00000204402002067
:08037000000000000000000085
:10037800F8B505460C46494B98421BD003F58063F7
:10038800984217D003F58063984213D003F5806331
:1003980098420FD003F5806398420BD003F5806331
:1003A800984207D003F58063984203D0B2213C48B5
:1003B80000F0A8FAE3786BB1042B0BD0282B09D0F6
:1003C800482B07D0142B05D0102B03D01C2B01D0A1
:1003D800182B14D12388BBB1E37803F00F063046FD
:1003E80013F0100F06D0A378013BDBB2022B10D814
:1003F800A078304323785BB32E68002310E0B32144
:10040800274800F07FFAE5E7B421254800F07AFA9A
:10041800E2E7BB21224800F075FAE9E76A61013397
:10042800072B14D801229A40218832EA0101F6D11B
:1004380099000F278F4026EA070600FA01F10E43BC
:10044800E1782829EAD04829E9D12A61E7E72E602E
:100458002388FF2B20D96E68002302E06A6115E02B
:100468000133072B17D803F1080101228A4021889C
:1004780032EA0101F4D199000F278F4026EA0706D6
:1004880000FA01F10E43E1782829E7D0E1784829FC
:10049800E6D12A61E4E76E60F8BD00BF00080140BC
:1004A800101B000810B4294B5B6803F00C03042BE5
:1004B8002BD0082B2CD013B1254B036001E0244B23
:1004C800036022494B68C3F30313224CE35CDAB29E
:1004D8000368D34043604A68C2F30222A25CD2B2E6
:1004E80023FA02F282604A68C2F3C222A25CD2B244
:1004F800D340C3604A68C2F3813217498A5CD2B2DA
:10050800B3FBF2F3036110BC7047114B0360D8E7EB
:100518000E4A53685268C3F38343023312F4803F90
:1005280004D10E4A02FB03F30360CAE7074A526884
:1005380012F4003F04D0094A02FB03F30360C0E74A
:10054800034A02FB03F30360BBE700BF001002404D
:1005580000127A00080000200400002000093D0075
:1005680038B504460D460E4B034003B920B940F296
:100578004A410C4800F0C6F9012D05D855B10A4A80
:1005880093691C43946138BD40F24B41054800F023
:10059800B9F9F3E7044A936923EA04049461F2E79A
:1005A8000200C0FF441B00080010024038B5044692
:1005B8000D460E4B184200D120B940F269410C4853
:1005C80000F0A0F9012D05D855B10A4AD3691C439A
:1005D800D46138BD40F26A41054800F093F9F3E769
:1005E800044AD36923EA0404D461F2E7003601819E
:1005F800441B00080010024030B587B004460D4681
:10060800674B984213D0A3F5744398420FD003F573
:10061800806398420BD003F58063984207D003F5B6
:100628008063984203D0B8215E4800F06BF92B68CC
:10063800013B5D4A934200F28580AB881BB1B3F55C
:10064800805F40F08480EB8843B1B3F5805F05D0CC
:10065800B3F5005F02D0B3F5405F7DD12B892BB194
:10066800B3F5806F02D0B3F5C06F7AD16A8922F0F2
:100678000C039BB203B91AB9BD214A4800F042F9EC
:10068800AB8943B1B3F5807F05D0B3F5007F02D0C5
:10069800B3F5407F6AD1AB8973B1414B9C420BD013
:1006A800A3F574439C4207D003F580639C4203D0B2
:1006B800C2213C4800F026F9238A9BB2EA8823F439
:1006C800405313432382A3899BB2A98828896A8946
:1006D80001430A4323F4B05323F00C031343A381CB
:1006E800A38A9BB2AA8923F440731343A38201A867
:1006F800FFF7D8FE2A4B9C423DD0039BA28912F4F7
:10070800004F3AD103EB830303EB83032968890085
:10071800B3FBF1F1254BA3FB012358090501642321
:1007280000FB1313A28912F4004F2FD11B0132339F
:100738001E4AA2FB0323C3F343132B439BB223811B
:1007480007B030BDB921174800F0DCF875E7BA21C9
:10075800144800F0D7F876E7BB21124800F0D2F829
:100768007CE7BC210F4800F0CDF87FE7BE210D489B
:1007780000F0C8F88FE7049BC0E703EB830303EBA3
:10078800830329684900B3FBF1F1C3E7DA00323289
:10079800064BA3FB0232C2F3421242EA0503CDE73D
:1007A80000380140741B00081FAA44001F85EB5144
:1007B80038B504460D46164B984214D0A3F5744339
:1007C800984210D003F5806398420CD003F58063FB
:1007D800984208D003F58063984204D04FF4B17171
:1007E8000C4800F08FF8012D05D855B1A38943F4C2
:1007F8000053A38138BD40F26311064800F082F827
:10080800F3E7A3899BB223F400539BB2A381F1E7DA
:1008180000380140741B000838B505460C461C4BCF
:10082800984214D0A3F57443984210D003F580631E
:1008380098420CD003F58063984208D003F5806392
:10084800984204D040F2B631124800F05BF824F424
:1008580058739BB203B924B940F2B7310D4800F080
:1008680051F814F4007F0FD0094B9D420CD0A3F52A
:1008780074439D4208D003F580639D4204D040F242
:10088800BB31044800F03EF8E443A4B22C8038BDE4
:1008980000380140741B0008FEE7000008B5034853
:1008A80000F054F80120FFF7F7FF00BFA81B00086D
:1008B80008B503460C4A12685AB10B4A106803334C
:1008C80023F003030344094A934206D8064A1360F7
:1008D80008BD054A06491160EFE700F07DFC0C23CE
:1008E80003604FF0FF30F3E7A4000020004C002025
:1008F8004402002001230360014B0B60704700BFD6
:100908001800002008B50A460146024800F004F81D
:10091800FFF7C4FFBC1B00080FB400B583B004ABDD
:1009280053F8042B01938021074800F09BFD002811
:1009380004DC03B05DF804EB04B0704701460248DC
:1009480000F044F8F5E700BFAC00002010B50446FD
:1009580000F03CFD0146204600F038F8012102482D
:1009680000F034F810BD00BF001E00082DE9F04368
:1009780085B004460F46435633BB04252846214616
:10098800ABBE0446384605B0BDE8F08304AA13445C
:10099800002203F8102C4FF00408E9464046494667
:1009A800ABBE8046761B002EECD03546102E28BFF5
:1009B80010250023AB42E9D214F9011B04AA1A44FA
:1009C80002F8101C0133F5E70E46ECE708B5FFF70F
:1009D800CDFF08BD08B500F0FDF8024A024B9A6049
:1009E80008BD00BF0000000800ED00E008B500F0F9
:1009F80019F908BDF8B504460D4617461E4627489E
:100A0800FFF78AFF21682648FFF786FF61682548B7
:100A1800FFF782FFA1682448FFF77EFFE1682348BB
:100A2800FFF77AFF21692248FFF776FF61692148BD
:100A3800FFF772FFA1692048FFF76EFFE1691F48C1
:100A4800FFF76AFF1E48FFF767FF29461D48FFF7B3
:100A580063FF1D4CE16A1D48FFF75EFF216B1C48D0
:100A6800FFF75AFFE16B1B48FFF756FF15F0800FA1
:100A78000AD115F4004F0CD11748FFF74DFF06991E
:100A88001648FFF749FFF8BD39461548FFF744FFF8
:100A9800EFE731461348FFF73FFFEDE7E81B000893
:100AA800F81B0008081C0008181C0008281C00086F
:100AB800381C0008481C0008581C0008681C00085E
:100AC800781C0008841C000800ED00E0941C000855
:100AD800A41C0008B41C0008E41C0008EC1C000856
:100AE800C41C0008D41C000883691A888A4201D0F3
:100AF800002070470268033A012A01D90020704794
:100B0800023383610120704782B000230193009370
:100B18002C4A136843F4803313602A4B1B6803F490
:100B280000330093019B01330193009B1BB9019B88
:100B3800B3F5A06FF1D1234B1B6813F4003F06D027
:100B480001230093009B012B04D002B070470023BF
:100B58000093F7E71C4B1A6842F010021A601A68F3
:100B680022F003021A601A6842F002021A60A3F522
:100B780080535A685A605A685A605A6842F48062C8
:100B88005A605A6822F47C125A605A6842F4E81291
:100B98005A601A6842F080721A600A4B1B6813F098
:100BA800007FFAD0074B5A6822F003025A605A684D
:100BB80042F002025A60034B5B6803F00C03082BF7
:100BC800F9D1C2E7001002400020024008B5FFF743
:100BD8009BFF08BD08B5104B1A6842F001021A6065
:100BE80059680E4A0A405A601A6822F0847222F440
:100BF80080321A601A6822F480221A605A6822F435
:100C0800FE025A604FF41F029A60FFF7DFFF044BA1
:100C18004FF000629A6008BD001002400000FFF823
:100C280000ED00E01F4B5B6803F00C03042B15D0AC
:100C3800082B17D01BB11C4B1C4A1A6002E01A4B38
:100C48001A4A1A60174B5B68C3F30313184AD35C3C
:100C5800DAB215490B68D3400B607047124B134A40
:100C68001A60EFE70F4A53685268C3F383430233AD
:100C780012F4803F05D10F4A02FB03F30A4A1360BE
:100C8800E0E7084A526812F4003F05D0094A02FB1F
:100C980003F3054A1360D5E7044A02FB03F3024A4B
:100CA8001360CFE7001002403000002000127A00E5
:100CB8002000002000093D000A4B1B680A4AA2FBDD
:100CC80003239B0C013BB3F1807FF5D2074A5360A5
:100CD800074BF02183F82310002393600723136048
:100CE800704700BF3000002083DE1B4310E000E0A7
:100CF80000ED00E0034B1B681BB1024A1368013B7F
:100D0800136070472C01002008B5FFF7F3FF08BDFA
:100D1800421E48B1054B4FF47A711960034B1B68AA
:100D2800002BFBD11046F3E7704700BF2C010020D1
:100D380010B5FFF7C1FF4FF416512E4800F074F8B4
:100D48001420FFF7E5FF00F0D7F8012829D02A483A
:100D5800FFF7E2FD00F0F6F8A0BB2848FFF7DCFD3E
:100D6800274800F083F800F08BF801462548FFF784
:100D7800D3FD40F6B830FFF7CBFF234800F076F8F4
:100D880000F07EF8044601461E48FFF7C5FD1F49DE
:100D9800204600F023FBD8B94FF4FA70FFF7B8FFEC
:100DA800EBE71B48FFF7B8FD40F2C57000F0B6F856
:100DB800012803D01748FFF7AFFDCBE71648FFF728
:100DC800ABFDC7E71548FFF7A7FD00F0CDF8C7E76B
:100DD800134800F04BF800F053F801460948FFF7B4
:100DE8009BFD4FF4FA70FFF793FF0E4800F03EF8B2
:100DF800FEE700BF00380140841D0008941D00086C
:100E0800E01D0008F41D0008F81D0008041E000875
:100E1800301D00086C1D0008501D0008B41D000896
:100E2800101E00082C1E000800B585B000910C2388
:100E3800ADF80A300023ADF80830ADF80630ADF84B
:100E48000C30ADF80430694600F002F905B05DF8E1
:100E580004FB000008B5044900F0C0FA08B10020FE
:100E680008BD0120FCE700BF581E000808B5014670
:100E7800024B186800F08AF908BD00BF3400002052
:100E88002DE9F843002637463446184B186800F019
:100E98008AF9054600F09AFA0644B146711C2046C4
:100EA80000F05CFA044600EB0708284600F08EFACA
:100EB80002462946404600F09DF9284600F086FA89
:100EC8000744284600F08EF90949204600F086FAC2
:100ED80028B90849204600F081FA0028D5D0002317
:100EE80004F809302046BDE8F88300BF340000202C
:100EF800581E0008341E000808B50648FFF7B6FF5C
:100F0800FFF7BEFF044900F069FA08B1012008BDE7
:100F18000020FCE75C1E0008681E000810B5074C9E
:100F280002460749204600F031FA2046FFF79EFFA7
:100F3800FFF7A6FFFFF78EFF10BD00BF3C010020A2
:100F4800701E000808B50648FFF790FFFFF798FFE6
:100F5800044900F043FA08B1012008BD0020FCE76D
:100F68003C1E0008481E000808B50448FFF77EFF2D
:100F7800FFF786FFFFF76EFF08BD00BF4C1E000895
:100F880030B583B02D4B984207D02D4B98421FD0D7
:100F98002C4B984236D003B030BD04238DF807306F
:100FA8004FF48063ADF80430274C01A92046FFF7C1
:100FB800DFF918238DF807304FF40073ADF80430CB
:100FC80003238DF8063001A92046FFF7D1F9E2E79F
:100FD80004258DF807500823ADF804301A4C0DEBA2
:100FE80005012046FFF7C4F918238DF80730ADF83E
:100FF800045003238DF806300DEB05012046FFF75A
:10100800B7F9C8E704238DF807304FF40063ADF84B
:1010180004300E4C01A92046FFF7AAF918238DF8D1
:1010280007304FF48063ADF8043003238DF80630A1
:1010380001A92046FFF79CF9ADE700BF0038014041
:10104800004400400048004000080140000C0140F6
:1010580038B504460D461E4B984212D01D4B984297
:101068001CD01D4B984226D029462046FFF7C4FACB
:1010780001212046FFF79CFB40212046FFF7CCFBCF
:1010880038BD01210420FFF76BFA01214FF480409D
:10109800FFF766FA0E48FFF773FFE5E70121042022
:1010A800FFF75EFA01214FF40030FFF77FFA094895
:1010B800FFF766FFD8E701210820FFF751FA012161
:1010C8004FF48020FFF772FA0348FFF759FFCBE788
:1010D800003801400044004000480040124B98424C
:1010E80007D0124B98420DD0114B984213D00020D4
:1010F80070470D4B1B8813F0200FFAD00A4B9888C5
:10110800C0B27047094B1B8813F0200FFAD0074B69
:101118009888C0B27047064B1B8813F0200FFAD08E
:10112800034B9888C0B27047003801400044004023
:1011380000480040124B984206D0124B98420BD000
:10114800114B984212D0704789B299800C4B1B887A
:1011580013F0800FFAD0704789B203F57443998071
:10116800084B1B8813F0800FFAD0704789B203F53B
:1011780070439980044B1B8813F0800FFAD0E2E784
:1011880000380140004400400048004038B505469A
:101198000C4694F9001029B10134C9B22846FFF76A
:1011A800C9FFF6E738BD2DE9F041804600252C46F9
:1011B8004046FFF793FF46B20A2E08D06F1C394607
:1011C800204600F0CBF8044646553D46F0E700239C
:1011D80063552046BDE8F081014B1868704700BF91
:1011E80038000020024B0146186800F011B800BF13
:1011F800380000200A44914200F1FF3300D17047C3
:1012080010B511F8014B914203F8014FF9D110BD07
:1012180038B50546002943D051F8043C0C1F002B73
:10122800B8BFE41800F02CF91E4A1368104633B909
:10123800636014602846BDE8384000F027B9A3422F
:101248000BD921686218934201BF1A685B6852186B
:10125800226063600460EDE713465A680AB1A2424F
:10126800FAD919685818A0420BD1206801445818B7
:1012780082421960DED110685268014419605A60D0
:10128800D8E702D90C232B60D4E7206821188A42BA
:1012980001BF116852680918216062605C60C9E783
:1012A80038BD00BF30010020F8B5CD1C25F003057E
:1012B80008350C2D38BF0C25002D064601DBA94248
:1012C80003D90C2333600020F8BD00F0D9F8214978
:1012D8000A6814469CB9204F3B6823B9214630461A
:1012E80000F044F838602946304600F03FF8431CC7
:1012F80023D10C233046336000F0C8F8E3E72368B5
:101308005B1B17D40B2B03D923601C44256004E016
:101318006368A2420CBF0B605360304600F0B6F819
:1013280004F10B00231D20F00700C21ACCD01B1AB1
:10133800A350C9E722466468CCE7C41C24F0030420
:10134800A042E3D0211A304600F010F80130DDD178
:10135800CFE700BF3001002034010020024B0A46CD
:101368000146186800F098B83800002038B5002306
:10137800054C054608462360FFF79AFA431C02D13C
:10138800236803B12B6038BD380100200EB46FF01C
:10139800004100B59CB01DAB0290069007910491E6
:1013A8000848094953F8042B0591006802A90193DC
:1013B80000F0F4F80022029B1A701CB05DF804EBF0
:1013C80003B07047380000200802FFFF034613F8F7
:1013D800012B002AFBD1181A01387047F0B50C7898
:1013E80064B103461A7818465E1C0AB9104605E02F
:1013F800944208D10D4615F8012F02B9F0BD13F833
:10140800017F9742F7D03346ECE730B5141E054606
:101418009BB0184605DA8B234FF0FF302B601BB0CA
:1014280030BD4FF40273ADF80C300CBF234604F105
:10143800FF33029305934FF6FF7300910491ADF8C3
:101448000E3002461E9B6946284600F0A7F8431C4A
:10145800BCBF8B232B60002CE1D00022009B1A70AC
:10146800DDE7000007B5009313460A460146034826
:101478000068FFF7CAFF03B05DF804FB38000020DE
:10148800014800F00FBB00BF3A020020014800F0FD
:101498000ABB00BF3A020020F8B5074614460E46BC
:1014A80021B91146BDE8F840FFF7FEBE22B9FFF7A3
:1014B800AFFE25462846F8BD00F01EFBA0420FD21D
:1014C80021463846FFF7F0FE05460028F2D031469F
:1014D8002246FFF78FFE31463846FFF799FEE9E7C7
:1014E8003546E7E72DE9F0478E6882469E420C466E
:1014F8009146984638D8B1F80CC01CF4906F31D09A
:1015080062692568096902EB42026F1A02EBD2721E
:10151800013355103B449D4238BF1D461CF4806F73
:1015280030D02946FFF7C0FE064650B90C234FF0CD
:10153800FF30CAF80030A38943F04003A381BDE817
:10154800F0873A462169FFF755FEA38923F4906393
:1015580043F08003A38126613E44266046466561C8
:10156800ED1BA560464500D94646324649462068E7
:1015780000F0A8FAA36800209B1BA36023681E4400
:101588002660DCE72A46FFF787FF06460028E2D1F7
:1015980021695046FFF73CFEC8E700002DE9F04FEF
:1015A8001E468B899DB01B0607460D4614460ED570
:1015B8000B6963B94021FFF777FE2860286120B9DD
:1015C8000C233B604FF0FF30C9E040236B610023E0
:1015D800099320238DF8293030234FF0010ADFF8D2
:1015E80098918DF82A30039623461E4613F8012B4E
:1015F8000AB1252AF9D1B6EB040B0BD05B4622467B
:1016080029463846FFF76EFF013000F0A380099B9A
:101618005B4409933378002B00F09C8000234FF043
:10162800FF32CDE905230136049307938DF8533033
:101638001A933446052214F8011B4F4800F034FA77
:10164800049BC0B9D90644BF20228DF853201A073D
:1016580044BF2B228DF8532032782A2A13D03446DF
:1016680000200A26079A214611F8013B303B092B36
:101678004BD970B914E0A0EB09000AFA00F018433E
:1016880004902646D5E7039A111D12680391002A93
:1016980001DB079204E0524243F0020307920493ED
:1016A80023782E2B0CD163782A2B33D1039B023459
:1016B8001A1D1B680392002BB8BF4FF0FF33059328
:1016C8002E4E03222178304600F0EEF938B140233F
:1016D800801B03FA00F0049B01340343049314F8BD
:1016E800011B062226488DF8281000F0DDF9002895
:1016F80038D0244B13BB039B073323F0070308336D
:101708000393099B434409936EE706FB02320120C9
:101718000C46A8E700230A261946013405932046FB
:1017280010F8012B303A092A03D9002BC8D00591AB
:10173800C6E706FB012101230446F0E703AB00934B
:101748002A46114B04A93846AFF30080B0F1FF3F99
:101758008046D6D1AB895B063FF534AF09981DB0FA
:10176800BDE8F08F03AB00932A46074B04A938461F
:1017780000F082F8EAE700BF801E0008861E000815
:101788008A1E000800000000ED1400082DE9F0474B
:1017980091461F468A680B6906469342B8BF1346AE
:1017A800C9F8003091F843200C46DDF8208012B1CA
:1017B8000133C9F800302368990642BFD9F80030D0
:1017C8000233C9F80030256815F0060507D104F181
:1017D800190AE368D9F800209B1AAB4229DC94F86F
:1017E80043302268003318BF012392062ED404F137
:1017F800430239463046C047013021D02368E568A6
:1018080003F00603042B18BF0025D9F800204FF079
:10181800000908BFAD1AA368226908BF25EAE57563
:101828009342C4BF9B1AED181A344D451AD10020B3
:1018380008E00123524639463046C047013003D1FB
:101848004FF0FF30BDE8F0870135C2E73020E118DE
:1018580081F843005A1C94F845102244023382F858
:101868004310C4E70123224639463046C0470130B9
:10187800E6D009F10109D8E72DE9F04306460C4600
:1018880001F14300097E85B06E29984617460C9BE6
:1018980000F0BB8024D8632939D00AD8002900F089
:1018A800C480582900F0928004F1420584F842105F
:1018B80035E0642901D06929F6D125681A6815F040
:1018C800800F02F104012CD012681960002A03DA93
:1018D8002D23524284F84330DFF8C0C10A233FE089
:1018E800732900F0A68008D86F2921D07029DBD190
:1018F800226842F02002226003E0752918D0782976
:10190800D2D17822DFF898C184F8452062E01A68BD
:1019180004F14205111D1960136884F8423001234F
:1019280094E0126815F0400F196018BF12B2CDE7A5
:10193800D4F800C01A681CF0800F02F104051D607D
:1019480001D0126803E01CF0400FFAD012886F290A
:101958000CBF08230A23DFF844C1002184F8431090
:101968006568002DA8BF2168A560A4BF21F0040107
:1019780021600AB9002D46D00546B2FBF3F103FBFE
:10198800112E1CF80EE0934205F801ED39D9082B09
:101998000BD12368DA0708D5236962689A42DEBF4B
:1019A800302305F8013C05F1FF35401B2061CDF8D7
:1019B80000803B4603AA21463046FFF7E7FE013088
:1019C80049D14FF0FF3005B0BDE8F083DFF8CCC057
:1019D80084F845101D68216855F8042B1D600D0614
:1019E8000BD5CD0744BF41F0200121601AB9236807
:1019F80023F0200323601023AFE74B0648BF92B2C1
:101A0800EFE70A46B9E70546C1E71A68D4F800C007
:101A1800151D61691CF0800F1D60136801D01960E5
:101A280003E01CF0400FFAD019800023054623611B
:101A3800BDE71A68111D19601568002162682846FB
:101A480000F032F808B1401B60606368236100232E
:101A580084F84330ABE723692A4639463046C04705
:101A68000130AED023689B0713D4E068039B9842EB
:101A7800B8BF1846A7E701234A4639463046C0474B
:101A880001309ED00135E368039A9B1AAB42F2DC21
:101A9800EBE7002504F11909F5E700BF911E0008DE
:101AA800A21E00087047704710B5C9B202449042A0
:101AB800034601D1002303E01C7801308C42F6D1A3
:101AC800184610BD884210B501EB020302D98342C3
:101AD8001C4607D8421E994208D011F8014B02F85B
:101AE800014FF8E783189A1A9A4200D110BD14F8EA
:101AF800011D03F8011DF7E751F8043C181F002BDE
:101B0800BCBF0B58C01870472E2E2F73797374659D
:101B18006D2F7372632F73746D333266312D737446
:101B2800647065726970682F73746D333266313012
:101B3800785F6770696F2E63000000002E2E2F7388
:101B4800797374656D2F7372632F73746D33326696
:101B5800312D7374647065726970682F73746D3396
:101B680032663130785F7263632E63002E2E2F73D6
:101B7800797374656D2F7372632F73746D33326666
:101B8800312D7374647065726970682F73746D3366
:101B980032663130785F75736172742E63000000AD
:101BA80061626F727428292C2065786974696E6780
:101BB8002E2E2E006173736572745F706172616D91
:101BC8002829206661696C65643A2066696C65201D
:101BD800222573222C206C696E652025640A00007A
:101BE800537461636B206672616D653A0A00000088
:101BF800205230203D2020253038580A00000000AF
:101C0800205231203D2020253038580A000000009D
:101C1800205232203D2020253038580A000000008C
:101C2800205233203D2020253038580A000000007B
:101C380020523132203D20253038580A000000005B
:101C4800204C52203D2020253038580A0000000042
:101C5800205043203D2020253038580A000000003D
:101C680020505352203D20253038580A00000000EB
:101C78004653522F4641523A0A0000002043465329
:101C880052203D2020253038580A0000204846536D
:101C980052203D2020253038580A00002044465361
:101CA80052203D2020253038580A00002041465354
:101CB80052203D2020253038580A0000204D4D463E
:101CC8004152203D20253038580A00002042464124
:101CD80052203D2020253038580A00004D69736392
:101CE8000A000000204C522F4558435F5245545576
:101CF800524E3D20253038580A0000005B4861727A
:101D0800644661756C745D0A000000005B4275737F
:101D18004661756C745D0A005B5573616765466161
:101D2800756C745D0A0000005265717565737465A1
:101D3800642070696E20636F646520746F20756E0F
:101D48006C6F636B210A000053696D20556E6C6FD0
:101D5800636B20556E7375636365737366756C2169
:101D68000A00000053696D20556E6C6F636B205339
:101D780075636365737366756C210A0053696D201A
:101D88006973207265616479210A0000436F6E6E81
:101D9800656374656420746F20686F6D65206E6577
:101DA80074776F726B2E2E2E0A000000436F6E6ED2
:101DB800656374696F6E20686173206E6F7420624A
:101DC80065656E2065737461626C6973686564200B
:101DD800796574210A0000004154442B39303533A9
:101DE80033383130343731313B0D0A0025730A005E
:101DF80041542B434C43430D0A000000312C302C36
:101E0800302C302C3000000041542B5654533D22C6
:101E1800312C312C332C332C412C412C33220D0AFC
:101E2800000000004154480D0A0000004552524F7E
:101E38005200000041542B435245473F0D0A000011
:101E4800302C310041542B435245473D310D0A0097
:101E58004F4B000041542B4350494E3F0D0A0000A0
:101E680053494D2050494E0041542B4350494E3D53
:101E7800222564220D0A0000232D302B2000686CD7
:101E88004C00656667454647003031323334353695
:101E980037383941424344454600303132333435CE
:0B1EA8003637383961626364656600FC
:101EB40078563412020406080000000001020304EC
:101EC4000102030406070809A8000020000000001E
:101ED40000000000000000000102030406070809D6
:101EE40000A24A04003801403C0000200000000029
:101EF40000000000000000000000000000000000DE
:101F040000000000000000000000000000000000CD
:101F140000000000000000000000000000000000BD
:101F240000000000000000000000000000000000AD
:101F3400000000000000000000000000000000009D
:101F440000000000000000000000000032547698F9
:040000050800010DE1
:00000001FF
